{
  "_format": "hh-sol-artifact-1",
  "contractName": "BullBear",
  "sourceName": "contracts/BullAndBearNFT.sol",
  "abi": [
    {
      "inputs": [
        {
          "internalType": "uint256",
          "name": "updateInterval",
          "type": "uint256"
        },
        {
          "internalType": "address",
          "name": "_pricefeed",
          "type": "address"
        }
      ],
      "stateMutability": "nonpayable",
      "type": "constructor"
    },
    {
      "anonymous": false,
      "inputs": [
        {
          "indexed": true,
          "internalType": "address",
          "name": "owner",
          "type": "address"
        },
        {
          "indexed": true,
          "internalType": "address",
          "name": "approved",
          "type": "address"
        },
        {
          "indexed": true,
          "internalType": "uint256",
          "name": "tokenId",
          "type": "uint256"
        }
      ],
      "name": "Approval",
      "type": "event"
    },
    {
      "anonymous": false,
      "inputs": [
        {
          "indexed": true,
          "internalType": "address",
          "name": "owner",
          "type": "address"
        },
        {
          "indexed": true,
          "internalType": "address",
          "name": "operator",
          "type": "address"
        },
        {
          "indexed": false,
          "internalType": "bool",
          "name": "approved",
          "type": "bool"
        }
      ],
      "name": "ApprovalForAll",
      "type": "event"
    },
    {
      "anonymous": false,
      "inputs": [
        {
          "indexed": true,
          "internalType": "address",
          "name": "previousOwner",
          "type": "address"
        },
        {
          "indexed": true,
          "internalType": "address",
          "name": "newOwner",
          "type": "address"
        }
      ],
      "name": "OwnershipTransferred",
      "type": "event"
    },
    {
      "anonymous": false,
      "inputs": [
        {
          "indexed": false,
          "internalType": "string",
          "name": "marketTrend",
          "type": "string"
        }
      ],
      "name": "TokensUpdated",
      "type": "event"
    },
    {
      "anonymous": false,
      "inputs": [
        {
          "indexed": true,
          "internalType": "address",
          "name": "from",
          "type": "address"
        },
        {
          "indexed": true,
          "internalType": "address",
          "name": "to",
          "type": "address"
        },
        {
          "indexed": true,
          "internalType": "uint256",
          "name": "tokenId",
          "type": "uint256"
        }
      ],
      "name": "Transfer",
      "type": "event"
    },
    {
      "inputs": [
        {
          "internalType": "address",
          "name": "to",
          "type": "address"
        },
        {
          "internalType": "uint256",
          "name": "tokenId",
          "type": "uint256"
        }
      ],
      "name": "approve",
      "outputs": [],
      "stateMutability": "nonpayable",
      "type": "function"
    },
    {
      "inputs": [
        {
          "internalType": "address",
          "name": "owner",
          "type": "address"
        }
      ],
      "name": "balanceOf",
      "outputs": [
        {
          "internalType": "uint256",
          "name": "",
          "type": "uint256"
        }
      ],
      "stateMutability": "view",
      "type": "function"
    },
    {
      "inputs": [
        {
          "internalType": "bytes",
          "name": "",
          "type": "bytes"
        }
      ],
      "name": "checkUpkeep",
      "outputs": [
        {
          "internalType": "bool",
          "name": "upkeepNeeded",
          "type": "bool"
        },
        {
          "internalType": "bytes",
          "name": "",
          "type": "bytes"
        }
      ],
      "stateMutability": "view",
      "type": "function"
    },
    {
      "inputs": [],
      "name": "currentPrice",
      "outputs": [
        {
          "internalType": "int256",
          "name": "",
          "type": "int256"
        }
      ],
      "stateMutability": "view",
      "type": "function"
    },
    {
      "inputs": [
        {
          "internalType": "uint256",
          "name": "tokenId",
          "type": "uint256"
        }
      ],
      "name": "getApproved",
      "outputs": [
        {
          "internalType": "address",
          "name": "",
          "type": "address"
        }
      ],
      "stateMutability": "view",
      "type": "function"
    },
    {
      "inputs": [],
      "name": "getLatestPrice",
      "outputs": [
        {
          "internalType": "int256",
          "name": "",
          "type": "int256"
        }
      ],
      "stateMutability": "view",
      "type": "function"
    },
    {
      "inputs": [],
      "name": "interval",
      "outputs": [
        {
          "internalType": "uint256",
          "name": "",
          "type": "uint256"
        }
      ],
      "stateMutability": "view",
      "type": "function"
    },
    {
      "inputs": [
        {
          "internalType": "address",
          "name": "owner",
          "type": "address"
        },
        {
          "internalType": "address",
          "name": "operator",
          "type": "address"
        }
      ],
      "name": "isApprovedForAll",
      "outputs": [
        {
          "internalType": "bool",
          "name": "",
          "type": "bool"
        }
      ],
      "stateMutability": "view",
      "type": "function"
    },
    {
      "inputs": [],
      "name": "lastTimeStamp",
      "outputs": [
        {
          "internalType": "uint256",
          "name": "",
          "type": "uint256"
        }
      ],
      "stateMutability": "view",
      "type": "function"
    },
    {
      "inputs": [],
      "name": "name",
      "outputs": [
        {
          "internalType": "string",
          "name": "",
          "type": "string"
        }
      ],
      "stateMutability": "view",
      "type": "function"
    },
    {
      "inputs": [],
      "name": "owner",
      "outputs": [
        {
          "internalType": "address",
          "name": "",
          "type": "address"
        }
      ],
      "stateMutability": "view",
      "type": "function"
    },
    {
      "inputs": [
        {
          "internalType": "uint256",
          "name": "tokenId",
          "type": "uint256"
        }
      ],
      "name": "ownerOf",
      "outputs": [
        {
          "internalType": "address",
          "name": "",
          "type": "address"
        }
      ],
      "stateMutability": "view",
      "type": "function"
    },
    {
      "inputs": [
        {
          "internalType": "bytes",
          "name": "",
          "type": "bytes"
        }
      ],
      "name": "performUpkeep",
      "outputs": [],
      "stateMutability": "nonpayable",
      "type": "function"
    },
    {
      "inputs": [],
      "name": "pricefeed",
      "outputs": [
        {
          "internalType": "contract AggregatorV3Interface",
          "name": "",
          "type": "address"
        }
      ],
      "stateMutability": "view",
      "type": "function"
    },
    {
      "inputs": [],
      "name": "renounceOwnership",
      "outputs": [],
      "stateMutability": "nonpayable",
      "type": "function"
    },
    {
      "inputs": [
        {
          "internalType": "address",
          "name": "to",
          "type": "address"
        }
      ],
      "name": "safeMint",
      "outputs": [],
      "stateMutability": "nonpayable",
      "type": "function"
    },
    {
      "inputs": [
        {
          "internalType": "address",
          "name": "from",
          "type": "address"
        },
        {
          "internalType": "address",
          "name": "to",
          "type": "address"
        },
        {
          "internalType": "uint256",
          "name": "tokenId",
          "type": "uint256"
        }
      ],
      "name": "safeTransferFrom",
      "outputs": [],
      "stateMutability": "nonpayable",
      "type": "function"
    },
    {
      "inputs": [
        {
          "internalType": "address",
          "name": "from",
          "type": "address"
        },
        {
          "internalType": "address",
          "name": "to",
          "type": "address"
        },
        {
          "internalType": "uint256",
          "name": "tokenId",
          "type": "uint256"
        },
        {
          "internalType": "bytes",
          "name": "data",
          "type": "bytes"
        }
      ],
      "name": "safeTransferFrom",
      "outputs": [],
      "stateMutability": "nonpayable",
      "type": "function"
    },
    {
      "inputs": [
        {
          "internalType": "address",
          "name": "operator",
          "type": "address"
        },
        {
          "internalType": "bool",
          "name": "approved",
          "type": "bool"
        }
      ],
      "name": "setApprovalForAll",
      "outputs": [],
      "stateMutability": "nonpayable",
      "type": "function"
    },
    {
      "inputs": [
        {
          "internalType": "uint256",
          "name": "newInterval",
          "type": "uint256"
        }
      ],
      "name": "setInterval",
      "outputs": [],
      "stateMutability": "nonpayable",
      "type": "function"
    },
    {
      "inputs": [
        {
          "internalType": "address",
          "name": "newFeed",
          "type": "address"
        }
      ],
      "name": "setPriceFeed",
      "outputs": [],
      "stateMutability": "nonpayable",
      "type": "function"
    },
    {
      "inputs": [
        {
          "internalType": "bytes4",
          "name": "interfaceId",
          "type": "bytes4"
        }
      ],
      "name": "supportsInterface",
      "outputs": [
        {
          "internalType": "bool",
          "name": "",
          "type": "bool"
        }
      ],
      "stateMutability": "view",
      "type": "function"
    },
    {
      "inputs": [],
      "name": "symbol",
      "outputs": [
        {
          "internalType": "string",
          "name": "",
          "type": "string"
        }
      ],
      "stateMutability": "view",
      "type": "function"
    },
    {
      "inputs": [
        {
          "internalType": "uint256",
          "name": "index",
          "type": "uint256"
        }
      ],
      "name": "tokenByIndex",
      "outputs": [
        {
          "internalType": "uint256",
          "name": "",
          "type": "uint256"
        }
      ],
      "stateMutability": "view",
      "type": "function"
    },
    {
      "inputs": [
        {
          "internalType": "address",
          "name": "owner",
          "type": "address"
        },
        {
          "internalType": "uint256",
          "name": "index",
          "type": "uint256"
        }
      ],
      "name": "tokenOfOwnerByIndex",
      "outputs": [
        {
          "internalType": "uint256",
          "name": "",
          "type": "uint256"
        }
      ],
      "stateMutability": "view",
      "type": "function"
    },
    {
      "inputs": [
        {
          "internalType": "uint256",
          "name": "tokenId",
          "type": "uint256"
        }
      ],
      "name": "tokenURI",
      "outputs": [
        {
          "internalType": "string",
          "name": "",
          "type": "string"
        }
      ],
      "stateMutability": "view",
      "type": "function"
    },
    {
      "inputs": [],
      "name": "totalSupply",
      "outputs": [
        {
          "internalType": "uint256",
          "name": "",
          "type": "uint256"
        }
      ],
      "stateMutability": "view",
      "type": "function"
    },
    {
      "inputs": [
        {
          "internalType": "address",
          "name": "from",
          "type": "address"
        },
        {
          "internalType": "address",
          "name": "to",
          "type": "address"
        },
        {
          "internalType": "uint256",
          "name": "tokenId",
          "type": "uint256"
        }
      ],
      "name": "transferFrom",
      "outputs": [],
      "stateMutability": "nonpayable",
      "type": "function"
    },
    {
      "inputs": [
        {
          "internalType": "address",
          "name": "newOwner",
          "type": "address"
        }
      ],
      "name": "transferOwnership",
      "outputs": [],
      "stateMutability": "nonpayable",
      "type": "function"
    }
  ],
  "bytecode": "0x610160604052605c60e081815260809182919062002a736101003981526020016040518060800160405280605c815260200162002b89605c913981526020016040518060800160405280605d815260200162002a16605d913990526200006a906011906003620002b3565b506040805160e08101909152605d60608201818152829162002b2c608084013981526020016040518060800160405280605d815260200162002be5605d913981526020016040518060800160405280605d815260200162002acf605d91399052620000da906012906003620002b3565b50348015620000e857600080fd5b5060405162002c4238038062002c428339810160408190526200010b9162000439565b6040805180820182526009815268213ab636132132b0b960b91b6020808301918252835180850190945260048452634242544b60e01b908401528151919291620001589160009162000317565b5080516200016e90600190602084019062000317565b5050506200018b62000185620001c560201b60201c565b620001c9565b600e82905542600f55600d80546001600160a01b0319166001600160a01b038316179055620001b96200021b565b60105550620005079050565b3390565b600b80546001600160a01b038381166001600160a01b0319831681179093556040519116919082907f8be0079c531659141344cd1fd0a4f28419497f9722a3daafe3b4186f6b6457e090600090a35050565b600080600d60009054906101000a90046001600160a01b03166001600160a01b031663feaf968c6040518163ffffffff1660e01b815260040160a06040518083038186803b1580156200026d57600080fd5b505afa15801562000282573d6000803e3d6000fd5b505050506040513d601f19601f82011682018060405250810190620002a8919062000476565b509195945050505050565b82805482825590600052602060002090810192821562000305579160200282015b82811115620003055782518051620002f491849160209091019062000317565b5091602001919060010190620002d4565b5062000313929150620003a2565b5090565b8280546200032590620004ca565b90600052602060002090601f01602090048101928262000349576000855562000394565b82601f106200036457805160ff191683800117855562000394565b8280016001018555821562000394579182015b828111156200039457825182559160200191906001019062000377565b5062000313929150620003c3565b8082111562000313576000620003b98282620003da565b50600101620003a2565b5b80821115620003135760008155600101620003c4565b508054620003e890620004ca565b6000825580601f10620003f9575050565b601f016020900490600052602060002090810190620004199190620003c3565b50565b80516001600160501b03811681146200043457600080fd5b919050565b600080604083850312156200044c578182fd5b825160208401519092506001600160a01b03811681146200046b578182fd5b809150509250929050565b600080600080600060a086880312156200048e578081fd5b62000499866200041c565b9450602086015193506040860151925060608601519150620004be608087016200041c565b90509295509295909350565b600181811c90821680620004df57607f821691505b602082108114156200050157634e487b7160e01b600052602260045260246000fd5b50919050565b6124ff80620005176000396000f3fe608060405234801561001057600080fd5b50600436106101cf5760003560e01c80636352211e11610104578063947a36fb116100a2578063b88d4fde11610071578063b88d4fde146103ac578063c87b56dd146103bf578063e985e9c5146103d2578063f2fde38b1461040e57600080fd5b8063947a36fb1461037f57806395d89b41146103885780639d1b464a14610390578063a22cb4651461039957600080fd5b8063715018a6116100de578063715018a61461034b578063724e78da146103535780638da5cb5b146103665780638e15f4731461037757600080fd5b80636352211e146103045780636e04ff0d1461031757806370a082311461033857600080fd5b80632f745c591161017157806342842e0e1161014b57806342842e0e146102b85780634585e33b146102cb5780634f6ccce7146102de578063590f2113146102f157600080fd5b80632f745c59146102895780633f3b3b271461029c57806340d097c3146102a557600080fd5b8063095ea7b3116101ad578063095ea7b31461023c57806318160ddd1461025157806322a900821461026357806323b872dd1461027657600080fd5b806301ffc9a7146101d457806306fdde03146101fc578063081812fc14610211575b600080fd5b6101e76101e2366004612087565b610421565b60405190151581526020015b60405180910390f35b610204610432565b6040516101f39190612262565b61022461021f36600461212c565b6104c4565b6040516001600160a01b0390911681526020016101f3565b61024f61024a36600461205e565b6104eb565b005b6008545b6040519081526020016101f3565b61024f61027136600461212c565b610606565b61024f610284366004611f14565b610613565b61025561029736600461205e565b610644565b610255600f5481565b61024f6102b3366004611ec8565b6106da565b61024f6102c6366004611f14565b610830565b61024f6102d93660046120bf565b61084b565b6102556102ec36600461212c565b6109ab565b600d54610224906001600160a01b031681565b61022461031236600461212c565b610a4c565b61032a6103253660046120bf565b610aac565b6040516101f3929190612247565b610255610346366004611ec8565b610acb565b61024f610b51565b61024f610361366004611ec8565b610b65565b600b546001600160a01b0316610224565b610255610b8f565b610255600e5481565b610204610c23565b61025560105481565b61024f6103a7366004612024565b610c32565b61024f6103ba366004611f4f565b610c3d565b6102046103cd36600461212c565b610c75565b6101e76103e0366004611ee2565b6001600160a01b03918216600090815260056020908152604080832093909416825291909152205460ff1690565b61024f61041c366004611ec8565b610c80565b600061042c82610cf9565b92915050565b60606000805461044190612407565b80601f016020809104026020016040519081016040528092919081815260200182805461046d90612407565b80156104ba5780601f1061048f576101008083540402835291602001916104ba565b820191906000526020600020905b81548152906001019060200180831161049d57829003601f168201915b5050505050905090565b60006104cf82610d1e565b506000908152600460205260409020546001600160a01b031690565b60006104f682610a4c565b9050806001600160a01b0316836001600160a01b031614156105695760405162461bcd60e51b815260206004820152602160248201527f4552433732313a20617070726f76616c20746f2063757272656e74206f776e656044820152603960f91b60648201526084015b60405180910390fd5b336001600160a01b0382161480610585575061058581336103e0565b6105f75760405162461bcd60e51b815260206004820152603e60248201527f4552433732313a20617070726f76652063616c6c6572206973206e6f7420746f60448201527f6b656e206f776e6572206e6f7220617070726f76656420666f7220616c6c00006064820152608401610560565b6106018383610d7d565b505050565b61060e610deb565b600e55565b61061d3382610e45565b6106395760405162461bcd60e51b81526004016105609061234a565b610601838383610ec4565b600061064f83610acb565b82106106b15760405162461bcd60e51b815260206004820152602b60248201527f455243373231456e756d657261626c653a206f776e657220696e646578206f7560448201526a74206f6620626f756e647360a81b6064820152608401610560565b506001600160a01b03919091166000908152600660209081526040808320938352929052205490565b60006106e5600c5490565b90506106f5600c80546001019055565b6106ff828261106b565b6000601160008154811061072357634e487b7160e01b600052603260045260246000fd5b90600052602060002001805461073890612407565b80601f016020809104026020016040519081016040528092919081815260200182805461076490612407565b80156107b15780601f10610786576101008083540402835291602001916107b1565b820191906000526020600020905b81548152906001019060200180831161079457829003601f168201915b505050505090506107c28282611085565b6106016040518060400160405280601581526020017402227a7229090909036b4b73a32b2103a37b5b2b71605d1b815250836040518060400160405280601981526020017f20616e642061737369676e656420746f6b656e2075726c3a20000000000000008152508461111f565b61060183838360405180602001604052806000815250610c3d565b600e54600f5461085b90426123c4565b11156109755742600f55600061086f610b8f565b90506010548114156108b9576106016040518060400160405280601781526020017f4e4f204348414e4745202d3e2072657475726e696e6721000000000000000000815250611168565b60105481121561091b576108f16040518060400160405280600d81526020016c49545320424541522054494d4560981b815250611168565b610916604051806040016040528060048152602001633132b0b960e11b8152506111ab565b61096e565b6109496040518060400160405280600d81526020016c4954532042554c4c2054494d4560981b815250611168565b61096e60405180604001604052806004815260200163189d5b1b60e21b8152506111ab565b6010555050565b6109a76040518060400160405280601181526020017020494e54455256414c204e4f542055502160781b815250611168565b5050565b60006109b660085490565b8210610a195760405162461bcd60e51b815260206004820152602c60248201527f455243373231456e756d657261626c653a20676c6f62616c20696e646578206f60448201526b7574206f6620626f756e647360a01b6064820152608401610560565b60088281548110610a3a57634e487b7160e01b600052603260045260246000fd5b90600052602060002001549050919050565b6000818152600260205260408120546001600160a01b03168061042c5760405162461bcd60e51b8152602060048201526018602482015277115490cdcc8c4e881a5b9d985b1a59081d1bdad95b88125160421b6044820152606401610560565b60006060600e54600f5442610ac191906123c4565b1191509250929050565b60006001600160a01b038216610b355760405162461bcd60e51b815260206004820152602960248201527f4552433732313a2061646472657373207a65726f206973206e6f7420612076616044820152683634b21037bbb732b960b91b6064820152608401610560565b506001600160a01b031660009081526003602052604090205490565b610b59610deb565b610b6360006113f2565b565b610b6d610deb565b600d80546001600160a01b0319166001600160a01b0392909216919091179055565b600080600d60009054906101000a90046001600160a01b03166001600160a01b031663feaf968c6040518163ffffffff1660e01b815260040160a06040518083038186803b158015610be057600080fd5b505afa158015610bf4573d6000803e3d6000fd5b505050506040513d601f19601f82011682018060405250810190610c189190612144565b509195945050505050565b60606001805461044190612407565b6109a7338383611444565b610c473383610e45565b610c635760405162461bcd60e51b81526004016105609061234a565b610c6f84848484611513565b50505050565b606061042c82611546565b610c88610deb565b6001600160a01b038116610ced5760405162461bcd60e51b815260206004820152602660248201527f4f776e61626c653a206e6577206f776e657220697320746865207a65726f206160448201526564647265737360d01b6064820152608401610560565b610cf6816113f2565b50565b60006001600160e01b0319821663780e9d6360e01b148061042c575061042c8261164f565b6000818152600260205260409020546001600160a01b0316610cf65760405162461bcd60e51b8152602060048201526018602482015277115490cdcc8c4e881a5b9d985b1a59081d1bdad95b88125160421b6044820152606401610560565b600081815260046020526040902080546001600160a01b0319166001600160a01b0384169081179091558190610db282610a4c565b6001600160a01b03167f8c5be1e5ebec7d5bd14f71427d1e84f3dd0314c0f7b2291e5b200ac8c7c3b92560405160405180910390a45050565b600b546001600160a01b03163314610b635760405162461bcd60e51b815260206004820181905260248201527f4f776e61626c653a2063616c6c6572206973206e6f7420746865206f776e65726044820152606401610560565b600080610e5183610a4c565b9050806001600160a01b0316846001600160a01b03161480610e9857506001600160a01b0380821660009081526005602090815260408083209388168352929052205460ff165b80610ebc5750836001600160a01b0316610eb1846104c4565b6001600160a01b0316145b949350505050565b826001600160a01b0316610ed782610a4c565b6001600160a01b031614610f3b5760405162461bcd60e51b815260206004820152602560248201527f4552433732313a207472616e736665722066726f6d20696e636f72726563742060448201526437bbb732b960d91b6064820152608401610560565b6001600160a01b038216610f9d5760405162461bcd60e51b8152602060048201526024808201527f4552433732313a207472616e7366657220746f20746865207a65726f206164646044820152637265737360e01b6064820152608401610560565b610fa883838361169f565b610fb3600082610d7d565b6001600160a01b0383166000908152600360205260408120805460019290610fdc9084906123c4565b90915550506001600160a01b038216600090815260036020526040812080546001929061100a908490612398565b909155505060008181526002602052604080822080546001600160a01b0319166001600160a01b0386811691821790925591518493918716917fddf252ad1be2c89b69c2b068fc378daa952ba7f163c4a11628f55a4df523b3ef91a4505050565b6109a78282604051806020016040528060008152506116aa565b6000828152600260205260409020546001600160a01b03166111005760405162461bcd60e51b815260206004820152602e60248201527f45524337323155524953746f726167653a2055524920736574206f66206e6f6e60448201526d32bc34b9ba32b73a103a37b5b2b760911b6064820152608401610560565b6000828152600a60209081526040909120825161060192840190611df9565b610c6f8484848460405160240161113994939291906122ae565b60408051601f198184030181529190526020810180516001600160e01b0316635ab84e1f60e01b1790526116dd565b610cf68160405160240161117c9190612262565b60408051601f198184030181529190526020810180516001600160e01b031663104c13eb60e21b1790526116dd565b6111d1604051806040016040528060048152602001633132b0b960e11b815250826116fe565b15611315576112326040518060400160405280601a81526020017f205550444154494e4720544f4b454e2055524953205749544820000000000000815250604051806040016040528060048152602001633132b0b960e11b81525083611757565b60005b600c5481101561130f576112fd81601260008154811061126557634e487b7160e01b600052603260045260246000fd5b90600052602060002001805461127a90612407565b80601f01602080910402602001604051908101604052809291908181526020018280546112a690612407565b80156112f35780601f106112c8576101008083540402835291602001916112f3565b820191906000526020600020905b8154815290600101906020018083116112d657829003601f168201915b5050505050611085565b8061130781612442565b915050611235565b506113b8565b6113716040518060400160405280601a81526020017f205550444154494e4720544f4b454e205552495320574954482000000000000081525060405180604001604052806004815260200163189d5b1b60e21b81525083611757565b60005b600c548110156113b6576113a481601160008154811061126557634e487b7160e01b600052603260045260246000fd5b806113ae81612442565b915050611374565b505b7f1cd67277dcd039d660f99499bdb46e90175d6160e3f9ab788a032b7a1ad2356a816040516113e79190612262565b60405180910390a150565b600b80546001600160a01b038381166001600160a01b0319831681179093556040519116919082907f8be0079c531659141344cd1fd0a4f28419497f9722a3daafe3b4186f6b6457e090600090a35050565b816001600160a01b0316836001600160a01b031614156114a65760405162461bcd60e51b815260206004820152601960248201527f4552433732313a20617070726f766520746f2063616c6c6572000000000000006044820152606401610560565b6001600160a01b03838116600081815260056020908152604080832094871680845294825291829020805460ff191686151590811790915591519182527f17307eab39ab6107e8899845ad3d59bd9653f200f220920489ca2b5937696c31910160405180910390a3505050565b61151e848484610ec4565b61152a8484848461179e565b610c6f5760405162461bcd60e51b8152600401610560906122f8565b606061155182610d1e565b6000828152600a60205260408120805461156a90612407565b80601f016020809104026020016040519081016040528092919081815260200182805461159690612407565b80156115e35780601f106115b8576101008083540402835291602001916115e3565b820191906000526020600020905b8154815290600101906020018083116115c657829003601f168201915b50505050509050600061160160408051602081019091526000815290565b9050805160001415611614575092915050565b81511561164657808260405160200161162e9291906121db565b60405160208183030381529060405292505050919050565b610ebc846118ab565b60006001600160e01b031982166380ac58cd60e01b148061168057506001600160e01b03198216635b5e139f60e01b145b8061042c57506301ffc9a760e01b6001600160e01b031983161461042c565b61060183838361191f565b6116b483836119d7565b6116c1600084848461179e565b6106015760405162461bcd60e51b8152600401610560906122f8565b80516a636f6e736f6c652e6c6f67602083016000808483855afa5050505050565b60008160405160200161171191906121bf565b604051602081830303815290604052805190602001208360405160200161173891906121bf565b6040516020818303038152906040528051906020012014905092915050565b61060183838360405160240161176f93929190612275565b60408051601f198184030181529190526020810180516001600160e01b0316632ced7cef60e01b1790526116dd565b60006001600160a01b0384163b156118a057604051630a85bd0160e11b81526001600160a01b0385169063150b7a02906117e290339089908890889060040161220a565b602060405180830381600087803b1580156117fc57600080fd5b505af192505050801561182c575060408051601f3d908101601f19168201909252611829918101906120a3565b60015b611886573d80801561185a576040519150601f19603f3d011682016040523d82523d6000602084013e61185f565b606091505b50805161187e5760405162461bcd60e51b8152600401610560906122f8565b805181602001fd5b6001600160e01b031916630a85bd0160e11b149050610ebc565b506001949350505050565b60606118b682610d1e565b60006118cd60408051602081019091526000815290565b905060008151116118ed5760405180602001604052806000815250611918565b806118f784611b25565b6040516020016119089291906121db565b6040516020818303038152906040525b9392505050565b6001600160a01b03831661197a5761197581600880546000838152600960205260408120829055600182018355919091527ff3f7a9fe364faab93b216da50a3214154f22a0a2b415b23a84c8169e8b636ee30155565b61199d565b816001600160a01b0316836001600160a01b03161461199d5761199d8382611c3f565b6001600160a01b0382166119b45761060181611cdc565b826001600160a01b0316826001600160a01b031614610601576106018282611db5565b6001600160a01b038216611a2d5760405162461bcd60e51b815260206004820181905260248201527f4552433732313a206d696e7420746f20746865207a65726f20616464726573736044820152606401610560565b6000818152600260205260409020546001600160a01b031615611a925760405162461bcd60e51b815260206004820152601c60248201527f4552433732313a20746f6b656e20616c7265616479206d696e746564000000006044820152606401610560565b611a9e6000838361169f565b6001600160a01b0382166000908152600360205260408120805460019290611ac7908490612398565b909155505060008181526002602052604080822080546001600160a01b0319166001600160a01b03861690811790915590518392907fddf252ad1be2c89b69c2b068fc378daa952ba7f163c4a11628f55a4df523b3ef908290a45050565b606081611b495750506040805180820190915260018152600360fc1b602082015290565b8160005b8115611b735780611b5d81612442565b9150611b6c9050600a836123b0565b9150611b4d565b60008167ffffffffffffffff811115611b9c57634e487b7160e01b600052604160045260246000fd5b6040519080825280601f01601f191660200182016040528015611bc6576020820181803683370190505b5090505b8415610ebc57611bdb6001836123c4565b9150611be8600a8661245d565b611bf3906030612398565b60f81b818381518110611c1657634e487b7160e01b600052603260045260246000fd5b60200101906001600160f81b031916908160001a905350611c38600a866123b0565b9450611bca565b60006001611c4c84610acb565b611c5691906123c4565b600083815260076020526040902054909150808214611ca9576001600160a01b03841660009081526006602090815260408083208584528252808320548484528184208190558352600790915290208190555b5060009182526007602090815260408084208490556001600160a01b039094168352600681528383209183525290812055565b600854600090611cee906001906123c4565b60008381526009602052604081205460088054939450909284908110611d2457634e487b7160e01b600052603260045260246000fd5b906000526020600020015490508060088381548110611d5357634e487b7160e01b600052603260045260246000fd5b6000918252602080832090910192909255828152600990915260408082208490558582528120556008805480611d9957634e487b7160e01b600052603160045260246000fd5b6001900381819060005260206000200160009055905550505050565b6000611dc083610acb565b6001600160a01b039093166000908152600660209081526040808320868452825280832085905593825260079052919091209190915550565b828054611e0590612407565b90600052602060002090601f016020900481019282611e275760008555611e6d565b82601f10611e4057805160ff1916838001178555611e6d565b82800160010185558215611e6d579182015b82811115611e6d578251825591602001919060010190611e52565b50611e79929150611e7d565b5090565b5b80821115611e795760008155600101611e7e565b80356001600160a01b0381168114611ea957600080fd5b919050565b805169ffffffffffffffffffff81168114611ea957600080fd5b600060208284031215611ed9578081fd5b61191882611e92565b60008060408385031215611ef4578081fd5b611efd83611e92565b9150611f0b60208401611e92565b90509250929050565b600080600060608486031215611f28578081fd5b611f3184611e92565b9250611f3f60208501611e92565b9150604084013590509250925092565b60008060008060808587031215611f64578081fd5b611f6d85611e92565b9350611f7b60208601611e92565b925060408501359150606085013567ffffffffffffffff80821115611f9e578283fd5b818701915087601f830112611fb1578283fd5b813581811115611fc357611fc361249d565b604051601f8201601f19908116603f01168101908382118183101715611feb57611feb61249d565b816040528281528a6020848701011115612003578586fd5b82602086016020830137918201602001949094529598949750929550505050565b60008060408385031215612036578182fd5b61203f83611e92565b915060208301358015158114612053578182fd5b809150509250929050565b60008060408385031215612070578182fd5b61207983611e92565b946020939093013593505050565b600060208284031215612098578081fd5b8135611918816124b3565b6000602082840312156120b4578081fd5b8151611918816124b3565b600080602083850312156120d1578182fd5b823567ffffffffffffffff808211156120e8578384fd5b818501915085601f8301126120fb578384fd5b813581811115612109578485fd5b86602082850101111561211a578485fd5b60209290920196919550909350505050565b60006020828403121561213d578081fd5b5035919050565b600080600080600060a0868803121561215b578081fd5b61216486611eae565b945060208601519350604086015192506060860151915061218760808701611eae565b90509295509295909350565b600081518084526121ab8160208601602086016123db565b601f01601f19169290920160200192915050565b600082516121d18184602087016123db565b9190910192915050565b600083516121ed8184602088016123db565b8351908301906122018183602088016123db565b01949350505050565b6001600160a01b038581168252841660208201526040810183905260806060820181905260009061223d90830184612193565b9695505050505050565b8215158152604060208201526000610ebc6040830184612193565b6020815260006119186020830184612193565b6060815260006122886060830186612193565b828103602084015261229a8186612193565b9050828103604084015261223d8185612193565b6080815260006122c16080830187612193565b85602084015282810360408401526122d98186612193565b905082810360608401526122ed8185612193565b979650505050505050565b60208082526032908201527f4552433732313a207472616e7366657220746f206e6f6e20455243373231526560408201527131b2b4bb32b91034b6b83632b6b2b73a32b960711b606082015260800190565b6020808252602e908201527f4552433732313a2063616c6c6572206973206e6f7420746f6b656e206f776e6560408201526d1c881b9bdc88185c1c1c9bdd995960921b606082015260800190565b600082198211156123ab576123ab612471565b500190565b6000826123bf576123bf612487565b500490565b6000828210156123d6576123d6612471565b500390565b60005b838110156123f65781810151838201526020016123de565b83811115610c6f5750506000910152565b600181811c9082168061241b57607f821691505b6020821081141561243c57634e487b7160e01b600052602260045260246000fd5b50919050565b600060001982141561245657612456612471565b5060010190565b60008261246c5761246c612487565b500690565b634e487b7160e01b600052601160045260246000fd5b634e487b7160e01b600052601260045260246000fd5b634e487b7160e01b600052604160045260246000fd5b6001600160e01b031981168114610cf657600080fdfea264697066735822122091d65d93c131ccf3d0cadf4309768e1448cbce12cb00788120980b96a0618d3664736f6c6343000804003368747470733a2f2f697066732e696f2f697066732f516d646355526d4e316b4545744b676e626b564a4a3868726d73535748705a764c6b5267734b4b6f6957765739673f66696c656e616d653d73696d706c655f62756c6c2e6a736f6e68747470733a2f2f697066732e696f2f697066732f516d5258796669336f4e5a43756244786956467265336b4c5a3858654774367051736e4151525a37616b68534e733f66696c656e616d653d67616d65725f62756c6c2e6a736f6e68747470733a2f2f697066732e696f2f697066732f516d624b68425856576d777259735450465966726f52324e374e41656b414d78485556673243576b73376939716a3f66696c656e616d653d73696d706c655f626561722e6a736f6e68747470733a2f2f697066732e696f2f697066732f516d6478394878374643445a474578796a4c52367659636e75745552384b68425a426e5a6641504869556f6d6d4e3f66696c656e616d653d6265616e69655f626561722e6a736f6e68747470733a2f2f697066732e696f2f697066732f516d524a5646654d7274595332435556554d3263484a70425635615832787572706e73665a784c545451626944333f66696c656e616d653d70617274795f62756c6c2e6a736f6e68747470733a2f2f697066732e696f2f697066732f516d54564c79545375694b4755456d6238384267584733714e4338596770485a6946626a4872584b4833514845753f66696c656e616d653d636f6f6c696f5f626561722e6a736f6e",
  "linkReferences": {},
  "deployedLinkReferences": {}
}